:100000000C947A000C9499000C9499000C9499002B
:100010000C9499000C9499000C9499000C949900FC
:100020000C9499000C9499000C9499000C949900EC
:100030000C9499000C9499000C9499000C949900DC
:100040000C9499000C9499000C9499000C949900CC
:100050000C9499000C9499000C9499000C949900BC
:100060000C9499000C9499000C9499000C949900AC
:100070000C9499000C9499000C9499000C9499009C
:100080000C9499000C9499000C9499000C9499008C
:100090000C9499000C9499000C9499000C9499007C
:1000A0000C9499000C9499000C9499000C9499006C
:1000B0000C9499000C9499000C9499000C9499005C
:1000C0000C9499000C9499000C9499000C9499004C
:1000D0000C9499000C949B000C9499000C9499003A
:1000E0000C9499000C9499000C9499000C9499002C
:1000F0000C94990011241FBECFEFCDBFDFE7DEBF08
:1001000012E4A0E0B0E4EEE7FDE000E00BBF02C0C7
:1001100007900D92AA31B107D9F722E4AAE1B2E41F
:1001200001C01D92A83CB207E1F70E94F3000C94B5
:10013000BD060C9400001F920F920FB60F9211246F
:100140000BB60F922F933F934F935F936F937F93D1
:100150008F939F93AF93BF93CF93EF93FF93C091F0
:100160006008CA3019F0CD3029F00FC080911A42D2
:100170008D3071F08C2F0E94470380E00E9447036E
:1001800010921D420E942F0303C08C2F0E94470330
:100190008091640885FF03C08C2F0E94E602C09303
:1001A0001A42FF91EF91CF91BF91AF919F918F91A3
:1001B0007F916F915F914F913F912F910F900BBE67
:1001C0000F900FBE0F901F90189588ED84BF8CE1A3
:1001D0008093680008950E94E5000E94A40378942B
:1001E0001092324208950E94EB0080E090E48093E8
:1001F000C4429093C5422FEF83ED90E3215080409D
:100200009040E1F700C0000081E290E49F938F935B
:100210000E94C5030F900F9080911D42811120C054
:100220002FEF83ED90E3215080409040E1F700C034
:10023000000082E390E40E94D90385E490E40E94E8
:100240009E011092204281E080931D420E94400353
:100250008EE490E49F938F930E94C5030F900F90BC
:1002600061E570E482E392E40E94BC03892BE1F42F
:1002700080911D428130C1F482E390E40E94D90351
:1002800083E590E40E949E0181E08093204282E019
:1002900080931D420E9440038EE490E49F938F93CD
:1002A0000E94C5030F900F9060E670E482E392E431
:1002B0000E94BC03892BD9F480911D428130B9F48E
:1002C00082E390E40E94D90382E690E40E949E01BA
:1002D00082E08093204280931D420E9440038EE47E
:1002E00090E49F938F930E94C5030F900F906FE649
:1002F00070E482E392E40E94BC03892B09F08CCF66
:1003000080911D42813009F087CF82E390E40E9402
:10031000D90381E790E40E949E0183E0809320420C
:1003200082E080931D420E9440038EE490E49F93FC
:100330008F930E94C5030F900F906ECF0F931F9362
:10034000CF938C0165E470E40E94BC03892B09F013
:1003500040C080911C4090911D400E94D903C0E094
:100360001BC0CD30C1F480E890E40E94D9038BE833
:1003700090E40E94D90388E990E40E94D9038FE4B5
:1003800090E40E94D90385EA90E40E94D90386EBA9
:1003900090E40E94D903CF5F80912040C81708F3F2
:1003A00080911B408F9380911A408F9385EC90E44D
:1003B0009F938F930E94C5030F900F900F900F9003
:1003C000C0E005C08FE490E40E94D903CF5FCF3036
:1003D000C8F363E570E4C8010E94BC03892B09F0EF
:1003E00045C0809119408F93809118408F9385EC80
:1003F00090E49F938F930E94C5030F900F900F90EE
:100400000F90C0E016C01F9282E08F938AEC90E4B8
:100410009F938F930E94C5030F900F900F900F90A2
:10042000C73031F402C08F5F01C080E08830D8F35C
:10043000CF5F80911F40C81730F3809117408F9392
:10044000809116408F9385EC90E49F938F930E9448
:10045000C5030F900F900F900F90C0E005C08FE480
:1004600090E40E94D903CF5FC830C8F362E670E41D
:10047000C8010E94BC03892B09F04EC08091154031
:100480008F93809114408F9385EC90E49F938F938A
:100490000E94C5030F900F900F900F90C0E01FC0F7
:1004A000C930E1F48BED90E49F938F930E94C503D4
:1004B00084EF90E49F938F930E94C5038EE091E4B4
:1004C0009F938F930E94C50388E291E40E94D90311
:1004D0000F900F900F900F900F900F90CF5F809123
:1004E0001E40C817E8F2809113408F93809112400C
:1004F0008F9385EC90E49F938F930E94C5030F9098
:100500000F900F900F90C0E005C08FE490E40E9420
:10051000D903CF5FC131C8F361E770E4C8010E941D
:10052000BC03892B09F04EC0809111408F938091BC
:1005300010408F9385EC90E49F938F930E94C503A6
:100540000F900F900F900F90C0E01FC0C730E1F4E4
:1005500082E491E49F938F930E94C5038BE591E41D
:100560009F938F930E94C50385E791E49F938F9398
:100570000E94C50388E291E40E94D9030F900F9076
:100580000F900F900F900F90CF5F80911E40C81773
:10059000E8F280910F408F9380910E408F9385EC0D
:1005A00090E49F938F930E94C5030F900F900F903C
:1005B0000F90C0E005C08FE490E40E94D903CF5FA4
:1005C000C131C8F3CF911F910F910895803210F07F
:1005D0008F3731F4873021F08D3011F08A3061F49B
:1005E00090911B42992321F097E09093620802C0FA
:1005F0008093620810921C42883011F08F37B1F45A
:1006000020911F4290911E4229130EC090911C42CE
:10061000911106C091E090931C4280936208089566
:1006200087E0809362080895809362080895CF93CD
:10063000C82F8A3019F48DE00E9417038091640856
:1006400085FFFCCFC093620880E090E0CF910895D1
:100650009091640895FFFCCF809362080895CF9332
:10066000C0E00AC0EC2FF0E0EE58FD4B80818823FB
:1006700029F00E942803CF5FC035A0F3CF910895E1
:1006800010921E4210921F4210921B420895883011
:1006900011F08F37B9F490911E4280911F42981744
:1006A00009F451C080911E42811104C08FE38093F0
:1006B0001E4205C080911E42815080931E421092BE
:1006C0001B42089590911B42992399F020911F425B
:1006D00090911E4230E0291B31092130310549F04B
:1006E00090911E429F3319F490911F4291111092E4
:1006F0001B4290911B42911126C0E0911E42F0E0F6
:10070000EE5CFD4B808380911F4220911E4290E061
:10071000821B9109019741F080911E428F3341F471
:1007200080911F42811104C081E080931B42089593
:1007300080911E428F5F80931E4280911E428034C2
:1007400010F010921E42089587E594E080936808A7
:100750009093690883E0809367088FE38093E205B4
:1007600081E08093210480E88093650882EC809387
:10077000660810926A080895FB01DC018D910190D2
:1007800080190110D9F3990B0895CF93DF93CDB75A
:10079000DEB7AE014B5F5F4FFA0161917191AF011E
:1007A0008091C4429091C5420E940904DF91CF918B
:1007B00008950F931F93CF93DF93E091C442F0917C
:1007C000C542238121FF1BC08C01D0E0C0E0F801AD
:1007D00081918F016091C4427091C542DB011896EE
:1007E000ED91FC911997882331F00995892B79F3C4
:1007F000DFEFCFEFECCF8AE00995892B19F08FEF6F
:100800009FEF02C08D2F9C2FDF91CF911F910F91F1
:1008100008952F923F924F925F926F927F928F92A4
:100820009F92AF92BF92CF92DF92EF92FF920F937F
:100830001F93CF93DF93CDB7DEB72B97CDBFDEBF2E
:100840006C017B018A01FC0116821782838181FF82
:10085000CCC1CE0101963C01F6019381F70193FDD5
:10086000859193FF81917F01882309F4BAC1853274
:1008700039F493FD859193FF81917F01853229F4AD
:10088000B60190E00E942306E7CF912C212C312C59
:10089000FFE1F315D8F08B3279F038F4803279F03B
:1008A0008332A1F4232D20611DC08D3261F080338D
:1008B00069F4232D216016C0832D8260382EE32D2C
:1008C000E4603E2E2AC0F32DF8601DC037FC2DC019
:1008D00020ED280F2A3040F08E32B9F436FC81C169
:1008E000232D2064322E19C036FE06C08AE0989E61
:1008F000200D1124922E11C0EAE02E9E200D11240D
:10090000222EF32DF0623F2E08C08C3621F4832D69
:100910008068382E02C0883641F4F70193FD859136
:1009200093FF81917F018111B3CF982F9F7D9554C3
:10093000933028F40C5F1F4F9FE399830DC08336DB
:1009400031F0833771F0833509F059C021C0F801C7
:10095000808189830E5F1F4F88248394912C5301DB
:1009600013C02801F2E04F0E511CF801A080B180A5
:1009700036FE03C0692D70E002C06FEF7FEFC50146
:100980000E9418064C018201F32DFF773F2E16C0FE
:10099000280122E0420E511CF801A080B18036FEF1
:1009A00003C0692D70E002C06FEF7FEFC5010E94A8
:1009B0000D064C01F32DF0683F2E820133FC1BC065
:1009C000822D90E088169906B0F4B60180E290E09E
:1009D0000E9423062A94F4CFF50137FC859137FE57
:1009E00081915F01B60190E00E94230621102A94B4
:1009F00021E0821A91088114910471F7E8C08436CD
:100A000011F0893641F5F80137FE07C06081718128
:100A1000828193810C5F1F4F08C060817181072E16
:100A2000000C880B990B0E5F1F4FF32DFF763F2EA6
:100A300097FF09C090958095709561957F4F8F4F76
:100A40009F4FF0683F2E2AE030E0A3010E945F062E
:100A5000882E861845C0853731F4232D2F7EB22E7F
:100A60002AE030E025C0932D997FB92E8F36C1F052
:100A700018F4883579F0B5C0803719F0883721F03F
:100A8000B0C0E92FE061BE2EB4FE0DC0FB2DF460B6
:100A9000BF2E09C034FE0AC0292F2660B22E06C020
:100AA00028E030E005C020E130E002C020E132E083
:100AB000F801B7FE07C060817181828193810C5F6C
:100AC0001F4F06C06081718180E090E00E5F1F4F74
:100AD000A3010E945F06882E8618FB2DFF773F2E0C
:100AE00036FE0DC0232D2E7FA22E891458F434FE1D
:100AF0000BC032FC09C0832D8E7EA82E05C0B82CF9
:100B0000A32C03C0B82C01C0B92CA4FE0FC0FE0159
:100B1000E80DF11D8081803321F49A2D997EA92E54
:100B200009C0A2FE06C0B394B39404C08A2D86788F
:100B300009F0B394A3FC11C0A0FE06C0B21488F45F
:100B4000280C922C9B180EC0B21460F4B60180E2FF
:100B500090E00E942306B394F7CFB21418F42B1838
:100B600002C0982C212CA4FE10C0B60180E390E0B6
:100B70000E942306A2FE17C0A1FC03C088E790E0F4
:100B800002C088E590E0B6010CC08A2D867859F045
:100B9000A1FE02C08BE201C080E2A7FC8DE2B6019B
:100BA00090E00E942306891438F4B60180E390E0B7
:100BB0000E9423069A94F7CF8A94F301E80DF11D61
:100BC0008081B60190E00E9423068110F5CF22209B
:100BD00009F442CEB60180E290E00E9423062A94F6
:100BE000F6CFF6018681978102C08FEF9FEF2B969B
:100BF000CDBFDEBFDF91CF911F910F91FF90EF909E
:100C0000DF90CF90BF90AF909F908F907F906F902C
:100C10005F904F903F902F900895FC010590615098
:100C200070400110D8F7809590958E0F9F1F089502
:100C3000FC016150704001900110D8F780959095AB
:100C40008E0F9F1F08950F931F93CF93DF93FB0188
:100C5000238121FD03C08FEF9FEF2CC022FF16C020
:100C600046815781248135814217530744F4A0817E
:100C7000B1819D012F5F3F4F208331838C9326816B
:100C800037812F5F3F4F2683378314C08B01EC01E0
:100C9000FB010084F185E02D0995892BE1F6D8014F
:100CA00016968D919C911797019616968D939C930D
:100CB0001797CE01DF91CF911F910F910895FA01FF
:100CC000AA27283051F1203181F1E8946F936E7F8B
:100CD0006E5F7F4F8F4F9F4FAF4FB1E03ED0B4E07C
:100CE0003CD0670F781F891F9A1FA11D680F791FBD
:100CF0008A1F911DA11D6A0F711D811D911DA11DCE
:100D000020D009F468943F912AE0269F11243019DD
:100D1000305D3193DEF6CF010895462F4770405D78
:100D20004193B3E00FD0C9F7F6CF462F4F70405D27
:100D30004A3318F0495D31FD4052419302D0A9F782
:100D4000EACFB4E0A6959795879577956795BA957C
:100D5000C9F700976105710508959B01AC010A2E42
:100D600006945795479537952795BA95C9F7620F19
:0E0D7000731F841F951FA01D0895F894FFCFD8
:100D7E0000000002000000001703000000008F4179
:100D8E00A8418F41D7419241F04195410642120D43
:100D9E000E5F5F5F57656C636F6D65215F5F5F5FB1
:100DAE003C000A5B496E74657270726574696E6799
:100DBE002E2E2E5D006D61696E4D656E75003E20A6
:100DCE0000310066616E53746174654D656E750019
:100DDE00320073657474696E67734D656E7500339A
:100DEE0000737461746973746963734D656E750015
:100DFE005B315D20537461747573005B325D2053FB
:100E0E00657474696E6773005B335D204F7665722F
:100E1E00766965770050726573732027456E746529
:100E2E00722720746F0072657475726E20746F2055
:100E3E006D61696E002573200A004572726F722013
:100E4E006F6E2066616E206E2E0A005B4D616E75B0
:100E5E00616C20636F6E74726F6C202020204F4681
:100E6E0046205D000A5B49324320636F6E74726FD9
:100E7E006C202020202020204F4646205D000A5B5B
:100E8E0046616E207370656564202020202020202E
:100E9E002020202030205D000A5B4E657720696E91
:100EAE0070757420202020202020202020202A2031
:100EBE005D005B43757272656E742052504D3A2020
:100ECE002020202020204E41205D000A5B437572B9
:100EDE0072656E742054656D703A2020202020209B
:100EEE004E41205D000A5B4E756D626572206F6625
:100EFE002046616E733A202020204E41205D002D49
:100F0E002D2D2D2D2D2D2D2D2D2D2D2D2D2D2D2D03
:100F1E002D2D2D2D2D2D2D002D2D2D2D2D2D2D5BF2
:100F2E004F564552564945575D2D2D2D2D2D2D2DA4
:100F3E00005B4932432073657474696E67732020B9
:100F4E0020202020205D002D2D2D2D2D2D2D5B53AD
:100F5E00455454494E47535D2D2D2D2D2D2D2D00CD
:100F6E002D2D2D2D2D2D5B46414E4D454E595D2D72
:100F7E002D2D2D2D2D002D2D2D2D2D2D5B4D414942
:0A0F8E004E5D2D2D2D2D2D2D0000A0
:00000001FF
