S01200004156523132385F46414E2E737265635A
S11300000C94F7000C9416010C9416010C94160130
S11300100C9416010C9416010C9416010C94160100
S11300200C9416010C9416010C9416010C941601F0
S11300300C9416010C9416010C9416010C941601E0
S11300400C9416010C9416010C9416010C941601D0
S11300500C9416010C9416010C9416010C941601C0
S11300600C9416010C9416010C9416010C941601B0
S11300700C9416010C9416010C9416010C941601A0
S11300800C9416010C9416010C9416010C94160190
S11300900C9416010C9416010C9416010C94160180
S11300A00C9416010C9416010C9416010C94160170
S11300B00C9416010C9416010C9416010C94160160
S11300C00C9416010C9416010C9416010C94160150
S11300D00C9416010C9424010C9416010C94160132
S11300E00C9416010C9416010C9416010C94160130
S11300F00C94160100407A10F35A00A0724E1809AD
S11301000010A5D4E80000E87648170000E40B547A
S1130110020000CA9A3B000000E1F5050000809649
S11301209800000040420F000000A086010000007B
S1130130102700000000E803000000006400000035
S113014000000A00000000000100000000002C76FE
S1130150D888DC674F0823DFC1DFAE59E1B1B79619
S1130160E5E3E453C63AE651997696E8E6C2842676
S1130170EB898C9B62ED407C6FFCEFBC9C9F40F252
S1130180BAA56FA5F490055A2AF75C936B6CF967CE
S11301906DC11BFCE0E40D47FEF520E6B500D0ED93
S11301A0902E0300943577050080841E08000020FB
S11301B04E0A000000C80C333333330F986E128399
S11301C01141EF8D2114893BE65516CFFEE6DB186D
S11301D0D1844B381BF77C1D901DA4BBE424203232
S11301E084725E228100C9F124ECA1E53D2711242B
S11301F01FBECFEFCDBFDFE7DEBF13E4A0E0B0E466
S1130200E2E7FDE100E00BBF02C007900D92AC32C3
S1130210B107D9F723E4ACE2B3E401C01D92A43ED4
S1130220B207E1F70E94B8010C94B70E0C940000D9
S11302308FE097E20197F1F700C000000E94BE062C
S113024008950895089508951F920F920FB60F927E
S113025011240BB60F922F933F934F935F936F9399
S11302607F938F939F93AF93BF93CF93EF93FF931A
S1130270C0916008CA3019F0CD3029F00EC08091C9
S11302802C438D3069F08C2F0E941A0780E00E9465
S11302901A0781E08093394303C08C2F0E941A0708
S11302A08091640885FF03C08C2F0E94D106C093FF
S11302B02C43FF91EF91CF91BF91AF919F918F917B
S11302C07F916F915F914F913F912F910F900BBE52
S11302D00F900FBE0F901F90189588ED84BF8CE18E
S11302E08093680008950E946D010E9477077894B6
S11302F010924E43089590913A4380913B4398174E
S113030091F0E0913B43F0E0E25BFC4B8081909103
S11303103B439F5F90933B4390913B43983120F044
S113032010923B43089580E00895CF93DF93C0E09B
S1130330D0E016C00E947B01282F30E02115310542
S113034011F4209791F02132310530F0FE01E35C85
S1130350FC4B8083219604C0C35CDC4B188203C031
S1130360C031D10538F310924D43DF91CF910895F8
S1130370CF93DF931F92CDB7DEB70E949C060E94F5
S11303808C062FEF31EE84E0215030408040E1F7BD
S113039000C000008DE00E9423010E9473010E94AE
S11303A0A20680E090E48093E0439093E1439FEFC2
S11303B0E3EDF0E39150E040F040E1F700C00000CD
S11303C081E290E40E948A092FEF39E688E1215006
S11303D030408040E1F700C0000082E390E40E94D6
S11303E035058BE390E49F938F930E947009E0E0BE
S11303F0F1E186819781848195810F900F90812C02
S1130400912C540180E090E00BC080936C0A90938F
S11304106D0AEFE3FCE93197F1F700C00000409664
S11304208034FCE99F0788F380913943882351F392
S11304308EE390E40E948A090E949501892B11F3AE
S11304406AED71E48DE393E40E946709892BE1F47A
S11304502FEF32E587E0215030408040E1F700C0C3
S1130460000082E390E40E94350510923C430E9410
S11304701307109239439FEFE4E3FCE09150E0400E
S1130480F040E1F700C0000061E570E48DE393E41F
S11304900E946709892B41F58EE390E40E948A0942
S11304A087E590E40E943505809130438F938091D5
S11304B02F438F9385E592E49F938F930E94700955
S11304C081E080933C430E941307109239432FEF3D
S11304D034E38CE0215030408040E1F700C000005C
S11304E00F900F900F900F9064E670E48DE393E407
S11304F00E946709892BC1F48EE390E40E948A0963
S11305008DE690E40E94350582E080933C430E948E
S11305101307109239439FEFE4E3FCE09150E0406D
S1130520F040E1F700C000006AE770E48DE393E473
S11305300E946709892B09F06CC080913343909124
S11305403443892BD9F58EE790E40E948A0911E09F
S1130550109341042FEF32E587E021503040804072
S1130560E1F700C000000E9418019FEFE4E3FCE003
S11305709150E040F040E1F700C0000084E990E4CD
S11305800E94210161E082E00E94220186EA90E457
S11305900E9421010E9413072FEF33ED80E32150C5
S11305A030408040E1F700C0000081E090E080939B
S11305B03343909334431093384312C081E08093C3
S11305C045049FEFE2E5F7E09150E040F040E1F7A9
S11305D000C0000010923343109234431092384309
S11305E0109239438DE690E40E9435052FEF34E3F1
S11305F08CE0215030408040E1F700C000000E94B0
S113060013078BE390E49F938F930E9470090F90DC
S11306100F9067EB70E48DE393E40E946709892BE4
S113062009F040C08EEB90E40E948A099FEFE9E64E
S1130630F8E19150E040F040E1F700C000000E9472
S113064013078091314390913243892B59F481E00F
S113065090E08093314390933243809336431092D9
S11306600E4009C010923143109232431092364327
S113067081E080930E408DE690E40E9435052FEFD3
S113068034E38CE0215030408040E1F700C00000AA
S11306900E9413078BE390E49F938F930E94700949
S11306A00F900F906BED70E48DE393E40E94670963
S11306B0892B09F580913143909132430197D9F404
S11306C083EE90E49F938F930E94700910920E40E2
S11306D00E949C060E948C069FEFE4E3FCE091508C
S11306E0E040F040E1F700C000000E9413071092C0
S11306F039430F900F9064E071E48DE393E40E941A
S11307006709892B01F580910E4081111CC010925C
S1130710374310923143109232438DE690E40E94A5
S1130720350588E99AE380936C0A90936D0A1092D8
S113073039430E9413078BE390E49F938F930E94A5
S113074070090F900F9068EF70E48DE393E40E94BA
S11307506709892B09F580910E4081111DC08DE236
S11307608093374310923143109232438DE690E4E4
S11307700E94350580EF95E580936C0A90936D0A8D
S1130780109239430E9413078BE390E49F938F9355
S11307900E9470090F900F906BEF70E48DE393E467
S11307A00E946709892B09F580910E4081111DC0B3
S11307B08AE58093374310923143109232438DE699
S11307C090E40E94350588E199E780936C0A909340
S11307D06D0A109239430E9413078BE390E49F93B0
S11307E08F930E9470090F900F906EEF70E48DE369
S11307F093E40E946709892B19F580910E408111B9
S11308001FC087E8809337431092314310923243DC
S11308108DE690E40E94350588E598E980936C0A9A
S113082090936D0A0E941307109239430E94130794
S11308308BE390E49F938F930E9470090F900F9025
S113084062E071E48DE393E40E946709892B19F552
S113085080910E4081111FC084EB80933743109226
S11308603143109232438DE690E40E94350584E0D2
S113087096EA80936C0A90936D0A0E941307109273
S113088039430E9413078BE390E49F938F930E9454
S113089070090F900F9080910E40813081F40E9476
S11308A09C060E948C06C501B4010E94FC0760935B
S11308B02F437093304360936C0A70936D0A66E023
S11308C071E48DE393E40E946709892B09F0B0C0B9
S11308D00E94A206E0E0F1E106811781E480F58040
S11308E08FE390E40E948A090E94B4062FEF32E558
S11308F087E0215030408040E1F700C00000609163
S113090010067091110680E090E00E94320820E009
S113091030E040E85DE30E94C0084B015C01B8018F
S113092080E090E00E943208A50194010E948F07A4
S11309300E9403089B01AC01D7010E942D09DC0130
S1130940CB019F5FAF4FBF4FBC01CD01052E59E0D6
S113095096958795779567955A95D1F7502D0E946E
S1130960320820E030E040E05EE30E94C00823E368
S113097033E948E853E40E948F074B015C01FE0110
S113098031967F018F0121E030E044E050E00E9485
S113099047098DE091E40E948A09809137431F92B0
S11309A08F9386E291E49F938F930E9470098DE563
S11309B090E00E948409FF92EF928DE391E49F936B
S11309C08F930E9470098DE590E00E94840984E56C
S11309D091E49F938F930E94700980910E40CDBF44
S11309E0DEBF813029F486E691E40E948A0904C0BE
S11309F08FE691E40E948A0988E791E40E94350514
S1130A0083E080933C43109239433FEF84E39CE0BE
S1130A10315080409040E1F700C000000E9413076D
S1130A208BE390E49F938F930E9470090F900F9033
S1130A3080913943882309F4E5CCEFEFF2E527E010
S1130A40E150F0402040E1F700C0000087E891E465
S1130A500E948A098BE390E49F938F930E9470090C
S1130A60109239430F900F90CDCC0F931F93CF93D7
S1130A708C0162E370E40E946709892B09F040C08D
S1130A8080911B4090911C400E948A09C0E01BC0C9
S1130A90CD30C1F48AE991E40E948A0985EA91E49F
S1130AA00E948A0982EB91E40E948A0984E691E417
S1130AB00E948A098FEB91E40E948A0980ED91E4F7
S1130AC00E948A09CF5F80912040C81708F3809163
S1130AD01A408F93809119408F938FED91E49F93E7
S1130AE08F930E9470090F900F900F900F90C0E0A9
S1130AF005C084E691E40E948A09CF5FCF30C8F331
S1130B0067E570E4C8010E946709892B09F046C0B3
S1130B10809118408F93809117408F938FED91E4CB
S1130B209F938F930E9470090F900F900F900F90D6
S1130B30C0E017C0C730A1F484EE91E49F938F9373
S1130B400E9470098AEF91E49F938F930E94700929
S1130B5081E192E40E948A090F900F900F900F9008
S1130B60CF5F80911F40C81728F3809116408F9360
S1130B70809115408F938FED91E49F938F930E9402
S1130B8070090F900F900F900F90C0E005C084E69D
S1130B9091E40E948A09CF5FC231C8F36DE670E424
S1130BA0C8010E946709892B09F088C0809114400C
S1130BB08F93809113408F938FED91E49F938F9344
S1130BC00E9470090F900F900F900F90C0E056C0D4
S1130BD0C93009F052C0809136438130F9F488E27B
S1130BE092E49F938F930E947009809137431F92E0
S1130BF08F9381E492E49F938F930E94700987EE10
S1130C0092E49F938F930E94700981E180931D4029
S1130C108DB79EB708968DBF9EBF08C088E592E445
S1130C209F938F930E9470090F900F908091384387
S1130C30813049F481E792E49F938F930E94700975
S1130C400F900F9008C08BE892E49F938F930E94BB
S1130C5070090F900F90809135431F928F9385EA0E
S1130C6092E49F938F930E94700986EE92E40E940F
S1130C708A090F900F900F900F90CF5F80911E40C4
S1130C80C81708F4A5CF809112408F93809111402A
S1130C908F938FED91E49F938F930E9470090F902F
S1130CA00F900F900F90C0E005C084E691E40E947D
S1130CB08A09CF5F80911D40C817B8F368E771E4D3
S1130CC0C8010E946709892B19F020C08F5F01C0F9
S1130CD080E090911E408917C8F3809110408F9353
S1130CE080910F408F938FED91E49F938F930E9497
S1130CF070090F900F900F900F90C0E005C084E62C
S1130D0091E40E948A09CF5FC231C8F3109239433B
S1130D10CF911F910F91089588E08093E605E0E458
S1130D20FAE083E4818380E49CE986A397A314A674
S1130D3015A685E080830895E0E4F4E08181806471
S1130D408183089581E08093B00084E18A95F1F76E
S1130D50E0E0F6E084E0818382E0828382E48087BD
S1130D608081816080830895E0E0F6E0828581607F
S1130D70828780910D0680FFFCCF0895E0E0F9E0C2
S1130D8080818061808380818460808381E0858329
S1130D908581806685838EE08683838181608383F9
S1130DA00895803210F08F3731F4873021F08D3080
S1130DB011F08A3061F490912D43992321F097E04A
S1130DC09093620802C08093620810922E43883088
S1130DD011F08F37B1F420913B4390913A4329139A
S1130DE00EC090912E43911106C091E090932E4332
S1130DF080936208089587E0809362080895809341
S1130E0062080895CF93C82F8A3019F48DE00E94A8
S1130E1002078091640885FFFCCFC093620880E0DC
S1130E2090E0CF91089510923A4310923B43109270
S1130E302D430895883011F08F37B9F490913A43D7
S1130E4080913B43981709F451C080913A43811132
S1130E5004C08FE380933A4305C080913A438150A4
S1130E6080933A4310922D43089590912D439923F2
S1130E7099F020913B4390913A4330E0291B31098A
S1130E802130310549F090913A439F3319F4909100
S1130E903B43911110922D4390912D43911126C003
S1130EA0E0913A43F0E0E25BFC4B808380913B436A
S1130EB020913A4390E0821B9109019741F080917F
S1130EC03A438F3341F480913B43811104C081E064
S1130ED080932D43089580913A438F5F80933A43E2
S1130EE080913A43803410F010923A43089587E594
S1130EF094E0809368089093690883E0809367087E
S1130F008FE38093E20581E08093210480E880935D
S1130F10650882EC8093660810926A080895505818
S1130F20BB27AA270E94A7070C9486080E9478086A
S1130F3038F00E947F0820F039F49F3F19F426F41A
S1130F400C9475080EF4E095E7FB0C946F08E92FF8
S1130F500E94970858F3BA17620773078407950726
S1130F6020F079F4A6F50C94B9080EF4E0950B2E54
S1130F70BA2FA02D0B01B90190010C01CA01A001E7
S1130F801124FF27591B99F0593F50F4503E68F142
S1130F901A16F040A22F232F342F4427585FF3CF83
S1130FA0469537952795A795F0405395C9F77EF454
S1130FB01F16BA0B620B730B840BBAF09150A1F09D
S1130FC0FF0FBB1F661F771F881FC2F70EC0BA0F23
S1130FD0621F731F841F48F4879577956795B795AB
S1130FE0F7959E3F08F0B0CF9395880F08F09927A6
S1130FF0EE0F9795879508950E9403086894B111A0
S11310000C94BA0808950E949F0888F09F5798F09E
S1131010B92F9927B751B0F0E1F0660F771F881FF9
S1131020991F1AF0BA95C9F714C0B13091F00E9413
S1131030B908B1E008950C94B908672F782F882770
S1131040B85F39F0B93FCCF3869577956795B3953A
S1131050D9F73EF490958095709561957F4F8F4FA9
S11310609F4F0895E89409C097FB3EF490958095AE
S1131070709561957F4F8F4F9F4F9923A9F0F92F5A
S113108096E9BB279395F695879577956795B795D8
S1131090F111F8CFFAF4BB0F11F460FF1BC06F5FBE
S11310A07F4F8F4F9F4F16C0882311F096E911C0D0
S11310B0772321F09EE8872F762F05C0662371F0F1
S11310C096E8862F70E060E02AF09A95660F771F05
S11310D0881FDAF7880F9695879597F9089597F9F9
S11310E09F6780E870E060E008959FEF80EC0895CA
S11310F000240A94161617061806090608950024F3
S11311000A9412161306140605060895092E03946C
S1131110000C11F4882352F0BB0F40F4BF2B11F4E0
S113112060FF04C06F5F7F4F8F4F9F4F089557FD3F
S11311309058440F551F59F05F3F71F04795880F41
S113114097FB991F61F09F3F79F0879508951216D8
S113115013061406551FF2CF4695F1DF08C0161684
S113116017061806991FF1CF869571056105089435
S11311700895E894BB2766277727CB0197F908954C
S11311800E94D3080C9486080E94780838F00E94C4
S11311907F0820F0952311F00C946F080C947508C7
S11311A011240C94BA080E94970870F3959FC1F318
S11311B0950F50E0551F629FF001729FBB27F00D01
S11311C0B11D639FAA27F00DB11DAA1F649F662756
S11311D0B00DA11D661F829F2227B00DA11D621FA5
S11311E0739FB00DA11D621F839FA00D611D221F5F
S11311F0749F3327A00D611D231F849F600D211D43
S1131200822F762F6A2F11249F5750409AF0F1F0C5
S113121088234AF0EE0FFF1FBB1F661F771F881F2E
S113122091505040A9F79E3F510580F00C946F08EF
S11312300C94BA085F3FE4F3983ED4F3869577950F
S11312406795B795F795E7959F5FC1F7FE2B880FD4
S1131250911D9695879597F908950E943809A59F41
S1131260900DB49F900DA49F800D911D112408959D
S1131270A29FB001B39FC001A39F700D811D1124D3
S1131280911DB29F700D811D1124911D0895EF923F
S11312900F931F93CF93DF93E80147FD02C034E01F
S11312A001C034E1042E000C550B57FF03C05195C7
S11312B041955109E32E022F242FAE010E94BE0B4B
S11312C0CE01DF91CF911F910F91EF900895FB0113
S11312D0DC018D91019080190110D9F3990B0895C7
S11312E0CF93DF93CDB7DEB7AE014B5F5F4FFA010B
S11312F061917191AF018091E0439091E1430E942B
S1131300BA09DF91CF9108956091E0437091E14370
S11313100C941D0E0F931F93CF93DF93E091E04342
S1131320F091E143238121FF1BC08C01D0E0C0E098
S1131330F80181918F016091E0437091E143DB01F9
S11313401896ED91FC911997882331F00995892B12
S113135079F3DFEFCFEFECCF8AE00995892B19F011
S11313608FEF9FEF02C08D2F9C2FDF91CF911F91A4
S11313700F9108952F923F924F925F926F927F92B6
S11313808F929F92AF92BF92CF92DF92EF92FF9291
S11313900F931F93CF93DF93CDB7DEB72B97CDBFBA
S11313A0DEBF6C017B018A01FC01168217828381F6
S11313B081FFCCC1CE0101963C01F6019381F70176
S11313C093FD859193FF81917F01882309F4BAC12C
S11313D0853239F493FD859193FF81917F018532A4
S11313E029F4B60190E00E941D0EE7CF912C212C28
S11313F0312CFFE1F315D8F08B3279F038F48032D8
S113140079F08332A1F4232D20611DC08D3261F067
S1131410803369F4232D216016C0832D8260382E19
S1131420E32DE4603E2E2AC0F32DF8601DC037FC86
S11314302DC020ED280F2A3040F08E32B9F436FC4E
S113144081C1232D2064322E19C036FE06C08AE0E5
S1131450989E200D1124922E11C0EAE02E9E200D9C
S11314601124222EF32DF0623F2E08C08C3621F475
S1131470832D8068382E02C0883641F4F70193FD2D
S1131480859193FF81917F018111B3CF982F9F7D27
S11314909554933028F40C5F1F4F9FE399830DC03C
S11314A0833631F0833771F0833509F059C021C098
S11314B0F801808189830E5F1F4F88248394912CC7
S11314C0530113C02801F2E04F0E511CF801A08013
S11314D0B18036FE03C0692D70E002C06FEF7FEF6C
S11314E0C5010E94120E4C018201F32DFF773F2E9D
S11314F016C0280122E0420E511CF801A080B180E0
S113150036FE03C0692D70E002C06FEF7FEFC501A6
S11315100E94070E4C01F32DF0683F2E820133FC2C
S11315201BC0822D90E088169906B0F4B60180E2C3
S113153090E00E941D0E2A94F4CFF50137FC8591AA
S113154037FE81915F01B60190E00E941D0E2110CB
S11315502A9421E0821A91088114910471F7E8C059
S1131560843611F0893641F5F80137FE07C06081F1
S11315707181828193810C5F1F4F08C060817181EA
S1131580072E000C880B990B0E5F1F4FF32DFF766F
S11315903F2E97FF09C090958095709561957F4F78
S11315A08F4F9F4FF0683F2E2AE030E0A3010E9446
S11315B0590E882E861845C0853731F4232D2F7E89
S11315C0B22E2AE030E025C0932D997FB92E8F36B4
S11315D0C1F018F4883579F0B5C0803719F0883730
S11315E021F0B0C0E92FE061BE2EB4FE0DC0FB2D8A
S11315F0F460BF2E09C034FE0AC0292F2660B22E23
S113160006C028E030E005C020E130E002C020E15F
S113161032E0F801B7FE07C0608171818281938155
S11316200C5F1F4F06C06081718180E090E00E5F07
S11316301F4FA3010E94590E882E8618FB2DFF7799
S11316403F2E36FE0DC0232D2E7FA22E891458F472
S113165034FE0BC032FC09C0832D8E7EA82E05C03B
S1131660B82CA32C03C0B82C01C0B92CA4FE0FC005
S1131670FE01E80DF11D8081803321F49A2D997EBD
S1131680A92E09C0A2FE06C0B394B39404C08A2D47
S1131690867809F0B394A3FC11C0A0FE06C0B2146E
S11316A088F4280C922C9B180EC0B21460F4B60176
S11316B080E290E00E941D0EB394F7CFB21418F4A8
S11316C02B1802C0982C212CA4FE10C0B60180E374
S11316D090E00E941D0EA2FE17C0A1FC03C088E783
S11316E090E002C088E590E0B6010CC08A2D8678AF
S11316F059F0A1FE02C08BE201C080E2A7FC8DE29A
S1131700B60190E00E941D0E891438F4B60180E3FE
S113171090E00E941D0E9A94F7CF8A94F301E80D8D
S1131720F11D8081B60190E00E941D0E8110F5CF5D
S1131730222009F442CEB60180E290E00E941D0E00
S11317402A94F6CFF6018681978102C08FEF9FEF2E
S11317502B96CDBFDEBFDF91CF911F910F91FF90EC
S1131760EF90DF90CF90BF90AF909F908F907F903D
S11317706F905F904F903F902F9008958F929F921B
S1131780AF92BF92CF92DF92EF92FF920F931F938B
S1131790CF93DF93CDB7DEB72997CDBFDEBF6A0104
S11317A0122FB02E2BE3201720F0FF24F394F00E19
S11317B002C02CE3F22E0F2D27E0AE014F5F5F4FE6
S11317C00E942F0DBC014981842F8970813031F032
S11317D0E1FC06C0E0FE06C090E205C09DE203C045
S11317E09BE201C090E05E2D507143FF3CC091111B
S11317F002C083E001C084E0811718F4212F281B64
S113180001C020E051110BC0F601822F30E2882381
S113181019F031938150FBCFC20ED11C20E09923E3
S113182029F0D6019C93F60131966F01C601039607
S1131830E2FE0AC03EE4D6013C9341E411964C9387
S1131840119712963C9306C03EE6F601308341E6BA
S113185041833283FC01322F40E2332309F442C036
S113186041933150FACF42FF44C0911102C083E04A
S113187001C084E0811718F4212F281B01C020E047
S113188051110BC0F601822F30E2882319F03193F5
S11318908150FBCFC20ED11C20E0992329F0D60140
S11318A09C93F60131966F01C6010396E2FE0BC0CC
S11318B039E4D6013C933EE411963C93119736E407
S11318C012963C9307C039E6F60130833EE6318335
S11318D036E63283FC01322F40E2332319F0419380
S11318E03150FBCFFC01E20FF11D10828EEF9FEF10
S11318F0A6C021E030E0911102C020E030E01616CD
S113190017061CF4FB01319602C0E1E0F0E02E0F53
S11319103F1FBB2021F0EB2DF0E0319602C0E0E048
S1131920F0E02E0F3F1FE12FF0E02E173F071CF4CD
S1131930121B212F01C020E08E2D887159F4F6016D
S1131940822F30E2882319F031938150FBCFC20EED
S1131950D11C20E0992329F0D6019C93F6013196FD
S11319606F0151110BC0F601822F90E3882319F007
S113197091938150FBCFC20ED11C20E00F2D060F96
S11319809A81342F307144FF03C0913309F401501C
S1131990101624F4093018F008E001C001E0AB018E
S11319A077FF02C040E050E0FB01E41BF50BA1E02F
S11319B0B0E0AC0FBD1FEA0FFB1F8EE2A82E4B0157
S11319C0801A91080B2D10E01195019511094F3FD4
S11319D0BFEF5B0721F4D601AC9211966D01641739
S11319E075072CF08416950614F4818101C080E3F8
S11319F0415051093196D60111967D014017510786
S1131A0024F0D6018C936701E2CF6417750739F48B
S1131A10963320F4953319F4311101C081E3F601B2
S1131A208083F701822F90E2882319F091938150EB
S1131A30FBCFF701E20FF11D108280E090E02996C0
S1131A40CDBFDEBFDF91CF911F910F91FF90EF903B
S1131A50DF90CF90BF90AF909F908F9008952830E3
S1131A6008F027E03327DA01990F311D87FD9160D3
S1131A7000966105710539F432602E5F3D9330E3C1
S1131A802A95E1F708959F3F30F08038710561058C
S1131A9009F03C5F3C5F3D93913008F08068911DF4
S1131AA0DF93CF931F930F93FF92EF92192F987F99
S1131AB09695E92F96959695E90FFF27E25BFE4FE1
S1131AC099273327EE24FF24A701E7010590089402
S1131AD0079428F4360FE71EF81E491F511D660FA0
S1131AE0771F881F991F0694A1F70590079428F47F
S1131AF0E70EF81E491F561FC11D770F881F991F37
S1131B00661F0694A1F70590079428F4F80E491F60
S1131B10561FC71FD11D880F991F661F771F069474
S1131B20A1F70590079420F4490F561FC71FD81F2B
S1131B30990F661F771F881F0694A9F78491109543
S1131B40177041F0D695C79557954795F794E79444
S1131B501A95C1F7E4EFF0E068941590159135916A
S1131B606591959105907FE27395E118F10A430B15
S1131B70560BC90BD009C0F7E10CF11E431F561FC9
S1131B80C91FD01D7EF4703311F48A95E6CFE89412
S1131B90015030F0080F0AF40027021708F4202F30
S1131BA02395022F7A3328F079E37D932A95E9F778
S1131BB010C07D932A9589F6069497956795379575
S1131BC017951794E118F10A430B560BC90BD0096A
S1131BD098F023957E9173957A3308F070E37C93A3
S1131BE02013B8F77E9170617D9330F0839571E393
S1131BF07D9370E32A95E1F71124EF90FF900F9104
S1131C001F91CF91DF91992787FD90950895FC014D
S1131C100590615070400110D8F7809590958E0F13
S1131C209F1F0895FC016150704001900110D8F786
S1131C30809590958E0F9F1F08950F931F93CF93B8
S1131C40DF93FB01238121FD03C08FEF9FEF2CC0A5
S1131C5022FF16C0468157812481358142175307DC
S1131C6044F4A081B1819D012F5F3F4F20833183D4
S1131C708C93268137812F5F3F4F2683378314C08F
S1131C808B01EC01FB010084F185E02D0995892B82
S1131C90E1F6D80116968D919C91179701961696A8
S1131CA08D939C931797CE01DF91CF911F910F9144
S1131CB00895FA01AA27283051F1203181F1E894DE
S1131CC06F936E7F6E5F7F4F8F4F9F4FAF4FB1E02B
S1131CD03ED0B4E03CD0670F781F891F9A1FA11D26
S1131CE0680F791F8A1F911DA11D6A0F711D811D27
S1131CF0911DA11D20D009F468943F912AE0269FEC
S1131D0011243019305D3193DEF6CF010895462F4A
S1131D104770405D4193B3E00FD0C9F7F6CF462F2B
S1131D204F70405D4A3318F0495D31FD4052419394
S1131D3002D0A9F7EACFB4E0A69597958795779551
S1131D406795BA95C9F700976105710508959B01D8
S1131D50AC010A2E06945795479537952795BA9561
S1131D60C9F7620F731F841F951FA01D0895F8946F
S1051D70FFCF9F
S1131D72000000020000000002070000000001BC95
S1131D8242BC42EB42BF420443C242184312120D08
S1131D920E5F5F5F57656C636F6D65215F5F5F5FA9
S1131DA23C006D61696E4D656E75003E20000A5BF4
S1131DB2496E74657270726574696E672E2E2E5D3B
S1131DC20073746174650066616E53746174654D69
S1131DD2656E750073657474696E677300736574F8
S1131DE274696E67734D656E75004C4344005B49BC
S1131DF26E697469616C697A696720746865204CDC
S1131E0243445D0020204932432069732061637496
S1131E1269766520200049324320616472657373D8
S1131E223A203078323700746F67676C65005B5410
S1131E326F67676C696E6720636F6E74726F6C6C28
S1131E422073657474696E67735D00646567726597
S1131E52657300506C6561736520656E74657220EC
S1131E62616E676C653A20003435003930003133D5
S1131E72350031383000737461746963002D2D2D7F
S1131E822D2D2D2D5B4F564552564945575D2D2D0F
S1131E922D2D2D2D2D005B43757272656E7420619C
S1131EA26E676C653A20202020256420000A5B437B
S1131EB2757272656E742054656D703A202020200C
S1131EC2202573000A5B4D6F64653A202020202090
S1131ED22020202020002020204155544F5D002046
S1131EE24C6F636B65645D007374617469737469C8
S1131EF263734D656E75005B556E6B6E6F776E2006
S1131F02636F6D6D616E64215D005B315D2053749E
S1131F1261747573005B325D2053657474696E6716
S1131F2273005B335D204F76657276696577005086
S1131F32726573732027456E7465722720746F006F
S1131F4272657475726E20746F206D61696E0025FE
S1131F5273200A005B54656D7065726174757265F5
S1131F62202020204F4646205D000A5B52504D201F
S1131F7220202020202020202020204F4646205DA3
S1131F82000A5B43757272656E7420202020202043
S1131F922020202030205D005B4D616E75616C2035
S1131FA2636F6E74726F6C202020204F4E20205D70
S1131FB2000A5B4465677265657320202020202037
S1131FC220202020202564005B4D616E75616C2009
S1131FD2636F6E74726F6C202020204F4646205D22
S1131FE2000A5B4932432073637265656E202020C8
S1131FF220202020204F4E20205D000A5B493243DE
S11320022073637265656E20202020202020204FDB
S11320124646205D000A5B536572766F20737065D5
S11320226564202020202020202564002D2D2D2DC4
S11320322D2D2D2D2D2D2D2D2D2D2D2D2D2D2D2DCA
S11320422D2D2D2D005B4932432073657474696E06
S11320526773202020202020205D002D2D2D2D2D82
S11320622D2D5B53455454494E47535D2D2D2D2D33
S11320722D2D2D002D2D2D2D2D2D5B534552564FDB
S11320825D2D2D2D2D2D2D002D2D2D2D2D2D5B4D29
S10F209241494E5D2D2D2D2D2D2D0000FB
S9030000FC
